:1000000012C021C020C01FC01EC01DC01CC01BC00C
:100010001AC069C218C017C016C015C014C013C0DA
:1000200012C011C010C011241FBECFE5D4E0DEBF46
:10003000CDBF10E0A0E6B0E001C01D92A63FB10721
:10004000E1F77BD2AFC2DCCFFB01808392931292A7
:10005000129280E88293CF010197FC0150E0508317
:1000600031975F5F5E30D9F7242F30E0F901EE0F52
:10007000FF1FEE0FFF1FEC59FF4F0E9791838083F8
:10008000F901EE0FFF1FEE0FFF1FEA59FF4F11821C
:10009000108281E090E002C0880F991F2A95E2F754
:1000A000282A089522244424662410926000109285
:1000B000610010926200109263008EE191E063E9AA
:1000C00070E043E0C1DF089563E0362E53E0552E23
:1000D000809170009091710041969EBF8DBF1895E0
:1000E00008951F920F920FB60F9211242F933F93F2
:1000F0004F935F936F937F938F939F93AF93BF9330
:10010000EF93FF93F894CF93DF938DB79EB7E32DD2
:10011000F0E0A4E6B0E0EE0FFF1FEE0FFF1FEA0FC6
:10012000FB1F91838083852D352C90E0880F991FCC
:10013000880F991FA80FB91F8D919C919EBF8DBFED
:10014000DF91CF91FF91EF91BF91AF919F918F91EF
:100150007F916F915F914F913F912F910F900FBEC3
:100160000F901F9018950895FF91FF91FF91FF91B7
:10017000C9CF089520FE02C080E009C021FE02C060
:1001800081E005C022FC02C083E001C082E0582E5D
:1001900008950FB60F921124F894442029F4662094
:1001A00019F4E8DF53109DDF0F900FBE112408955E
:1001B0000FB60F921124F894E82FF0E021E030E020
:1001C000082E02C0220F331F0A94E2F7222AEE0FF4
:1001D000FF1FEE0FFF1FEA59FF4F11821082831598
:1001E00028F40F900FBE1124D4DF08950F900FBE96
:1001F000112408950FB60F921124F894482F50E05F
:10020000FA01EE0FFF1FEE0FFF1FEA59FF4F118299
:10021000108221E030E0082E02C0220F331F0A9422
:10022000E2F720952222381629F40F900FBE1124F0
:10023000B0DF08950F900FBE1124089513BE85E01E
:1002400083BF89B7816089BF84E682BFA2DF0FB612
:100250000F921124F8948091600090916100A09118
:100260006200B09163000196A11DB11D80936000F2
:1002700090936100A0936200B09363000F900FBE53
:100280001124E5CF0FB60F921124F894842D8F3FDF
:1002900009F043940F900FBE112408950FB60F92EA
:1002A0001124F89441104A94442071F4662061F4BA
:1002B00061DF531449F00F900FBE1124FF91FF919D
:1002C000FF91FF911FCF08950F900FBE1124089545
:1002D0000FB60F921124F894422DE6E6F0E020E0EC
:1002E00030E061E070E080819181009769F00197D2
:1002F00091838083892B41F4CB01022E02C0880FA9
:10030000991F0A94E2F7482B2F5F3F4F3496233012
:10031000310549F7242E0F900FBE112408959C013A
:100320004420E9F40097D9F00FB60F921124F89405
:10033000E32DF0E081E090E002C0880F991F3A942D
:10034000E2F780952822EE0FFF1FEE0FFF1FEA59FC
:10035000FF4F318320830F900FBE11241ADF0895C1
:10036000FC016083118280E00895EF92FF920F9369
:100370001F93CF93DF938C017A01442021F087E013
:10038000DA018C936AC0662011F086E064C00FB673
:100390000F921124F894DC018C91882331F0815064
:1003A0008C930F900FBE11242AC0E32DF0E0C1E022
:1003B000D0E0CE01032C02C0880F991F0A94E2F707
:1003C000D80111962C911197282B11962C9380957A
:1003D000282261157105B1F40F900FBE1124D9DEEA
:1003E000032C02C0CC0FDD1F0A94E2F7FE01E0955A
:1003F000D80111968C9111978E2311968C93F70149
:1004000010822BC0EE0FFF1FEE0FFF1FEA59FF4FA8
:10041000718360830F900FBE1124BBDE232D30E06B
:10042000F901EE0FFF1FEE0FFF1FEA59FF4F80810A
:100430009181892B91F4032C02C0CC0FDD1F0A940B
:10044000E2F79E012095D80111969C911197922375
:1004500011969C9381E0F7018083DF91CF911F91EA
:100460000F91FF90EF900895FC010FB60F921124A9
:10047000F8944181442381F040FF02C030E01BC06A
:1004800041FF02C031E017C042FF06C013C00F9009
:100490000FBE11247EDE0CC080818F3F31F08F5F54
:1004A00080830F900FBE112403C00F900FBE112444
:1004B00080E0089532E081E090E0032E01C0880FD3
:1004C0000A94EAF7282F209524232183282A33151C
:1004D00018F7DDCF13BE85E083BF89B7816089BF80
:1004E00084E682BF08951F920F920FB60F921124D7
:1004F0002F933F934F935F936F937F938F939F932C
:10050000AF93BF93EF93FF93BDDE84E682BFE0DE3F
:10051000C5DEFF91EF91BF91AF919F918F917F9138
:100520006F915F914F913F912F910F900FBE0F9060
:100530001F901895089508950895B4DD88EC92E011
:1005400063E171E040E080DD8EEB92E063EF70E00C
:1005500041E07ADD84EB92E063ED70E042E074DD2F
:10056000B3DD80E090E008958FEF87BB88BB88B350
:10057000809588BB83E090E0D2DEF9CF8FEF87BB18
:1005800088BB88B3809588BB82E090E0C8DEF9CF55
:100590008FEF84BB15BA85B3809585BB81E090E071
:0805A000BEDEF9CFF894FFCF95
:00000001FF
